:020000040800F2
:10000000000400204701000875010008770100087E
:100010007B0100087F010008830100080000000048
:100020000000000000000000000000008701000840
:1000300089010008000000008B0100088D01000804
:1000400067010008670100086701000867010008F0
:1000500067010008670100086701000867010008E0
:1000600067010008670100086701000867010008D0
:1000700067010008670100086701000867010008C0
:1000800067010008670100086701000867010008B0
:1000900067010008670100086701000867010008A0
:1000A0006701000867010008670100086701000890
:1000B0006701000867010008670100086701000880
:1000C0006701000867010008670100086701000870
:1000D0006701000895010008670100086701000832
:1000E0006701000867010008670100086701000850
:1000F0006701000867010008670100086701000840
:10010000670100086701000867010008670100082F
:10011000190200086701000867010008670100086C
:10012000670100086701000867010008670100080F
:10013000DFF80CD001F0B2FF00480047D5020008FC
:10014000281F0020704708488047084981F3088825
:1001500007480047FEE7FEE7FEE7FEE7FEE7FEE7AB
:10016000FEE7FEE7FEE7FEE745010008281F002046
:1001700031010008704700BFFEE700BFFEE700BF87
:10018000FEE700BFFEE770477047704710B501F00B
:1001900090FE10BD10B540F22551494800F026FEF2
:1001A00001280CD1464800F0C2FDC4B221464548A2
:1001B00000F0ACFF40F22551414800F03DFE4FF405
:1001C00058713F4800F012FE012805D14FF45871D4
:1001D0003B4800F031FE10BD40F22441384800F0A9
:1001E00005FE012805D140F22441354800F024FEE7
:1001F000F1E740F22771324800F0F8FD28B1002203
:1002000040F227712E4800F032FD40F226612C4862
:1002100000F012FE00BFDEE738B540F225512A4853
:1002200000F0E4FD01280CD1274800F080FDC4B2A5
:100230002146264800F06AFF40F22551224800F08E
:10024000FBFD4FF45871204800F0D0FD012805D186
:100250004FF458711C4800F0EFFD38BD40F22441C6
:10026000194800F0C3FD012805D140F22441164889
:1002700000F0E2FDF1E740F22771134800F0B6FD0F
:10028000B0B100200090124800F033FF48B9694631
:100290000F4800F054FF9DF800000B49091D08802D
:1002A00005E0002240F22771074800F0E0FC00BFA3
:1002B00040F22661044800F0BFFD00BFCDE700001A
:1002C0000038014054000020004C00407C08002011
:1002D0006804002000F0A0FE00F07FF836E01C4823
:1002E0000078012802D100201949087019480078C7
:1002F000012802D10020174908701748007801280A
:1003000002D100201449087014480078012802D155
:1003100000201249087012480078012802D10020FC
:100320000F4908700F480078012802D100200D49BC
:1003300008700D480078012804D101F03BFE002030
:100340000949087001F042FB01F046F8C7E70000D8
:10035000420000204300002044000020450000200F
:1003600046000020470000204800002070B52149C9
:10037000B1F1807F00D31DE021F07F40401E4FF09F
:10038000E022506150170F22002807DA13071D0ED4
:10039000194B00F00F04241F1D5503E013071C0E1A
:1003A000164B1C5400BF00204FF0E0229061072044
:1003B000106100BF4FF480621149124800F062FEE4
:1003C0004FF480621049114800F05CFE4FF48062E7
:1003D0000F49104800F056FE70BD10B5FFF7C6FF7C
:1003E00001F0D4FD01F0DAFB01F01BFC01F0D6FCBA
:1003F00010BD00004019010018ED00E000E400E02D
:10040000900C002054000020901000207C08002058
:10041000901400206804002010B50446C649601AF4
:100420008C422FD009DCC548204480B1B0F5806FE4
:1004300016D0B0F5006F4AD11BE0B0F5806F2AD01E
:10044000B0F5006F30D0B0F5406F40D135E00121FC
:10045000042000F0FFFA0021042000F0FBFA37E04E
:100460000121082000F0F6FA0021082000F0F2FA3D
:100470002EE00121102000F0EDFA0021102000F004
:10048000E9FA25E00121202000F0E4FA00212020F3
:1004900000F0E0FA1CE00121402000F0DBFA00212E
:1004A000402000F0D7FA13E00121802000F0D2FABA
:1004B0000021802000F0CEFA0AE00121080200F0BD
:1004C000C9FA00214FF4807000F0C4FA00E000BFC8
:1004D00000BF10BD10B50121084600F0BBFA002195
:1004E000012000F0B7FA10BD2DE9F04102460025C9
:1004F0000026002000230024002791F803C00CF000
:100500000F0591F803C00CF0100CBCF1000F03D0E4
:1005100091F802C04CEA050591F800C0BCF1000F4B
:1005200031D0146800202BE04FF0010C0CFA00F3DE
:10053000B1F800C00CEA03069E4220D183004FF0C0
:100540000F0C0CFA03F7BC4305FA03FC4CEA040455
:1005500091F803C0BCF1280F06D14FF0010C0CFA42
:1005600000FCC2F814C00AE091F803C0BCF1480FC7
:1005700005D14FF0010C0CFA00FCC2F810C0401C71
:100580000828D1D31460B1F800C0BCF1FF0F34DDEE
:10059000546800202EE000F1080C4FF0010808FA22
:1005A0000CF3B1F800C00CEA03069E4221D183008F
:1005B0004FF00F0C0CFA03F7BC4305FA03FC4CEAAE
:1005C000040491F803C0BCF1280F05D100F1080C18
:1005D00008FA0CF8C2F8148091F803C0BCF1480F77
:1005E00007D100F1080C4FF0010808FA0CF8C2F826
:1005F0001080401C0828CED35460BDE8F0814FF62F
:10060000FF710180022181700421C1707047024690
:10061000002093680B400BB1012000E000207047E0
:100620000146886880B2704702460020D3680B40BC
:100630000BB1012000E0002070470146C86880B27D
:10064000704701617047416170470AB1016100E084
:1006500041617047C16070474FF480320A43826144
:100660008161826182698269704702460020344B51
:1006700018684FF68073184040EA02100843304B68
:10068000186070472F49C8617047F0B50A460023CB
:100690000024002100252A4E7168C0F3034583B26F
:1006A00000F44016B6F5401F08D121F07061244EC9
:1006B000766826F07066224F7E6012E000F48016A5
:1006C000B6F5801F06D1032606FA05F4A14341F0D2
:1006D000706106E0460D360103FA06F6B14341F0BB
:1006E000706122B1460D360103FA06F63143144E0D
:1006F0007160F0BD30B500228B071C0F0F2303FA89
:1007000004F20F4B08338C1053F8243093430C4CF5
:1007100008348D1044F8253023468C1053F82430CB
:100720008C07240F00FA04F42343054C08348D1081
:1007300044F8253030BD00000014014000F8FEBF31
:100740000000014000002042DE48006840F0010047
:10075000DC49086008464068DB490840D9494860E0
:1007600008460068D9490840D6490860084600682C
:1007700020F4802008600846406820F4FE004860AD
:10078000002088607047CF49096821F48031CD4A44
:1007900011601146096821F480211160B0F5803F95
:1007A00003D0B0F5802F0ED106E0C649096841F4A8
:1007B0008031C44A116007E0C249096841F4A021B0
:1007C000C04A116000E000BF00BF704710B501468D
:1007D0000022002300204A11012A02D1B94C2368CB
:1007E00006E0022A02D1B74C236A01E0B54C636AE5
:1007F00001F01F02012494401C400CB1012000E0D4
:10080000002010BD38B5002000900024002500BF56
:100810003120FFF7DBFF05460098401C00901DB912
:100820000098B0F5A06FF3D13120FFF7CFFF08B1EA
:10083000012400E00024204638BD01460020A14AE2
:10084000106820F0F80040EAC10010607047A0492D
:1008500008607047024600209A4B586820F47C10CC
:1008600042EA01031843974B58607047984908665D
:10087000704701460020934A506820F00300084367
:10088000506070478F48406800F00C007047014688
:1008900000208C4A506820F0F000084350607047F8
:1008A00001460020874A506820F4E0600843506009
:1008B000704701460020834A506820F4605040EAA7
:1008C000C1005060704729B17E4A527A02437D4B85
:1008D0005A7204E07B4A527A82437A4B5A727047CA
:1008E0007B49D8310860704701460020754A50683E
:1008F00020F440400843506070470021714A203284
:100900001170704A82F82010012802D004280AD100
:1009100004E001216B4A2032117005E00521694A8B
:100920002032117000E000BF00BF704769490860C5
:1009300070476449096A0143624A11627047654918
:1009400044390860704730B500210022002400239C
:100950005C4D6D6805F00C0121B1042905D0082912
:1009600023D105E05C4D056022E05B4D05601FE092
:10097000544D6D6805F47012022505EB9242514DFD
:100980006D6805F480341CB9544D554305600BE087
:100990004C4D6D6805F400351DB1504D5543056053
:1009A00002E04D4D5543056002E04B4D056000BF30
:1009B00000BF444D6D6805F0F0010909484D6B5CBE
:1009C0000568DD4045603F4D6D6805F4E061090A4A
:1009D000434D6B5C4568DD4085603A4D6D6805F4BC
:1009E0006051C90A3E4D6B5C4568DD40C560354DC0
:1009F0006D6805F44041890B3A4D6B5CC568B5FBE9
:100A0000F3F5056130BD29B12E4A526902432D4BE1
:100A10005A6104E02B4A526982432A4B5A6170475B
:100A200029B1284A92690243264B9A6104E0254A7B
:100A300092698243234B9A61704729B1214AD26956
:100A40000243204BDA6104E01E4AD26982431D4B07
:100A5000DA61704729B11B4AD2680243194BDA6048
:100A600004E0184AD2688243164BDA60704729B115
:100A7000144A12690243134B1A6104E0114A1269C5
:100A80008243104B1A617047124940390860704721
:100A90000F49C86470470B49C87170470948406ADC
:100AA00040F0807007494862704701460020054ABF
:100AB00092680A400AB1012000E000207047014915
:100AC00088727047001002400000FFF8FFFFF6FE3A
:100AD000000042428004424200127A0000093D00B8
:100AE000000000201000002010B50446D749601A0D
:100AF0008C422BD006DCD648204498B1B0F5806FEC
:100B000038D119E0B0F5806F2AD0B0F56C4F31D1F3
:100B100001218803FFF79EFF00214FF48040FFF77B
:100B200099FF28E001214804FFF7A1FF00214FF4BD
:100B30000030FFF79CFF1EE001218804FFF797FFBC
:100B400000214FF48020FFF792FF14E00121C80438
:100B5000FFF78DFF00214FF40020FFF788FF0AE028
:100B600001210805FFF783FF00214FF48010FFF7F4
:100B70007EFF00E000BF00BF10BD2DE9F04786B04A
:100B800005460E460024A24600BF00BF00272F46A0
:100B90002C8A4CF6FF700440F08804432C82AC8908
:100BA0004EF6F3100440B088318908437189084338
:100BB0000443AC81AC8A4FF6FF400440B089044343
:100BC000AC8201A8FFF7BFFEA248874202D1DDF840
:100BD00010A001E0DDF80CA00AEBCA0000EB0A103F
:100BE00031688900B0FBF1F86420B8FBF0F0040133
:100BF0002009642101FB1089322000EB0910B0FBB1
:100C0000F1F000F00F0004432C8106B0BDE8F0873E
:100C10004FF41651016000218180C18001810C21B7
:100C2000418100218181704710B502460020108A61
:100C30004FF2FF0318400B884C8823438C882343D2
:100C4000CC8823431843108210BD002101804180CD
:100C50008180C180704721B1828942F40052828133
:100C600004E082894DF6FF731A4082817047F0B527
:100C7000034600240026002500201846C1F3421434
:100C800001F01F06012707FA06F5012C01D10C30EF
:100C900004E0022C01D1103000E014301AB10768D2
:100CA0002F43076002E00768AF430760F0BD1AB149
:100CB000838A0B43838202E0838A8B43838270475B
:100CC000028A4FF6F0731A400282028A0A430282B5
:100CD000704782894FF2FF731A40828182890A43EA
:100CE0008281704721B1828942F00202828104E050
:100CF00082894FF6FD731A4082817047028A4FF64F
:100D0000DF731A400282028A0A430282704721B1CD
:100D1000028A42F48042028204E0028A4BF6FF73A8
:100D20001A4002827047C1F3080282807047014670
:100D30008888C0F308007047818941F001018181F2
:100D40007047028BD2B20283028B42EA01220283F5
:100D50007047028B02F47F420283028B0A430283B4
:100D6000704721B1828A42F02002828204E0828AA6
:100D70004FF6DF731A408282704721B1828A42F0B7
:100D80001002828204E0828A4FF6EF731A40828258
:100D9000704721B1828A42F00802828204E0828A8E
:100DA0004FF6F7731A4082827047828A4FF6FB73C0
:100DB0001A408282828A0A438282704721B1828AE3
:100DC00042F00202828204E0828A4FF6FD731A40EA
:100DD000828270470246002013880B400BB101202D
:100DE00000E000207047CA430280704770B5024699
:100DF0000B460024002100250020C3F3421503F018
:100E00001F01012606FA01F1012D02D19689314018
:100E100006E0022D02D1168A314001E0968A314067
:100E20001C12012606FA04F41688344011B10CB1E4
:100E3000012000E0002070BD10B5002200230A123E
:100E400001249440A3B2DC43048010BD004C004058
:100E500000BCFFBF0038014031490143314A1160F5
:100E6000704770B5002100230F22C47804B32D4CC5
:100E7000246804F4E064C4F5E064210AC1F10403C9
:100E8000CA40447804FA03F18478144021430901EC
:100E9000254C0678A155047804F01F050124AC40C8
:100EA00005786D11AD0005F1E025C5F8004109E0B8
:100EB000047804F01F050124AC401C4D067876111F
:100EC00045F8264070BD1A4A0A400243154B1B1FC5
:100ED0001A60704739B1134A121D12680243114B50
:100EE0001B1D1A6006E00F4A121D126882430D4B4B
:100EF0001B1D1A607047042808D14FF0E0210969D2
:100F000041F004014FF0E022116107E04FF0E021D1
:100F1000096921F004014FF0E022116170470000DF
:100F20000000FA050CED00E000E400E080E100E0E4
:100F300080FFFF1F0CB5002001900090474800681B
:100F400040F480304549086000BF4448006800F420
:100F5000003000900198401C0190009818B9019849
:100F6000B0F5A06FF1D13D48006800F4003010B139
:100F70000120009001E0002000900098012844D159
:100F80003748006840F0100035490860084600689E
:100F900020F0030008600846006840F00200086086
:100FA0002E4840682D494860084640684860084619
:100FB000406840F4806048600846406820F47C1037
:100FC00048600846406840F4E810486008460068F9
:100FD00040F08070086000BF2048006800F000709A
:100FE0000028F9D01D48406820F003001B494860E4
:100FF0000846406840F00200486000BF174840685B
:1010000000F00C000828F9D101E000BFFEE70CBD9C
:1010100010B5FFF78FFF10BD10B51048006840F005
:1010200001000E490860084640680E4908400B4917
:101030004860084600680C490840084908600846AE
:10104000006820F4802008600846406820F4FE0014
:10105000486000208860FFF7DBFF10BD00100240F1
:10106000002002400000FFF8FFFFF6FE10B500234D
:1010700005E010F8014B01F8014B5C1CE3B2934210
:10108000F7DB10BD70B504460E4615462660206895
:1010900010B963A001F034F800206060A060E56042
:1010A00070BD70B50446656864A001F029F805E0DC
:1010B0002068415D65A001F023F86D1CE068B5FB78
:1010C000F0F100FB1150A1688842F1D160A001F05D
:1010D00017F870BD01468868401CCA68B0FBF2F37F
:1010E00002FB13004A68904201D1012070470020A2
:1010F000FCE70146D1E90102904201D1012070478D
:101100000020FCE7002181604160704770B5044613
:101110000D462046FFF7DEFF20B14EA000F0F0FFA5
:10112000002070BDA16820684554A068401CE1689B
:10113000B0FBF1F201FB1200A0600120F1E710B555
:1011400003460C461846FFF7D4FF08B1002010BD37
:10115000D3E90001405C20705868401CD968B0FB9E
:10116000F1F201FB120058600120F0E72DE9F04197
:1011700004460F4615461E462760206810B928A071
:1011800000F0BEFF00206060A060E5602661BDE861
:10119000F08170B504460D4616462046FFF79AFFCB
:1011A00020B131A000F0ACFF002070BD2369A2681F
:1011B000206802FB030132462846FFF757FF04F17F
:1011C0001400A1684654A068401CE168B0FBF1F22D
:1011D00001FB1200A0600120E7E7F0B504460E46CF
:1011E00015462046FFF785FF08B10020F0BD04F149
:1011F00014006168405C28702769D4E9001303FB80
:1012000007102A783146FFF731FF6068401CE1681B
:10121000B0FBF1F201FB120060600120E6E7000084
:101220004D656D6F727920616C6C6F636174696F6D
:101230006E206661696C757265000000B6D3D6D009
:10124000B5C4D4AACBD8CAC73A0A00002564200086
:101250000A0000000D0A20B6D3C1D0B2E5C8EBCA1F
:10126000FDBEDDCAA7B0DC000D0A20B6D3C1D0B2E6
:10127000E5C8EBCAFDD7E9CAA7B0DC0008B56946E6
:101280005748FFF75CFF00280FD09DF800000D289D
:101290000CD154480178544800F0ECF9002053492F
:1012A0000870504908705249087094E0504800781E
:1012B00020B11B2852D05B284FD15EE09DF8000082
:1012C0001B2802D14A49087047E09DF80000082811
:1012D0001DD14648007800283FDD44480078401E74
:1012E000424908703F480078401E3E490870442338
:1012F0005B221B213FA000F003FF40A000F000FF95
:1013000044235B221B213BA000F0FAFE25E09DF860
:101310000010364802780078401C344B1870324870
:101320008154184600782F490978884203DD184611
:1013300000782C4908702D480078B0F5806F07DBE5
:1013400000202A490870274908702949087004E0DC
:101350009DF8001028A000F0D3FE3BE09DF80000AF
:101360005B2802D12249087006E00020204908705D
:101370001C4908701D4908702CE09DF800004128A8
:1013800018D0422817D0432816D0442818D117481F
:10139000007800280DDD15480078401E13490870BC
:1013A00044235B221B2113A000F0AAFE0020104959
:1013B00008700DE000BF00BF00200D49087007E075
:1013C00000200B490870074908700849087000BFE1
:1013D00000BF00BF00BF08BD10B5FFF74FFF10BD35
:1013E0005400002015000020901800201400002058
:1013F00016000020256325632563000020000000FF
:1014000010B5002407E0DB4850F82410DAA000F003
:1014100077FE601CC4B20A2CF5DBD9A000F070FE88
:1014200010BD01460020602901DD672903DB30295A
:101430000CDB39290ADC302904DB392902DC01F014
:101440000F0004E0A1F15702D0B200E00020704785
:101450002DE9F04188B080460E461746C9A00068C5
:101460000790C9A1404600F0DAFD10B908B0BDE808
:10147000F081C8A1404600F0D2FD00B9F6E7C8A14E
:10148000404600F0CCFD00B9F0E7C7A1404600F0AF
:10149000C6FD00B9EAE7C6A1404600F0C0FD00B9AC
:1014A000E4E7C6A1404600F0BAFD10BB3078FFF774
:1014B000B8FF05467078FFF7B4FF40EA0510C5B2E3
:1014C0008DF81C503878FFF7ACFF05467878FFF7A9
:1014D000A8FF40EA0510C5B28DF81D509DF81D20EB
:1014E0009DF81C10B8A000F00BFEBCA000F008FE98
:1014F000BCE7BFA1404600F092FD00B9B6E7BEA12F
:10150000404600F08CFD00B9B0E7BEA1404600F0B7
:1015100086FD002850D1182101A800F06EFD00249E
:10152000FFF76EFF0A222146641C01A842540122E3
:101530002146641C4254BB222146641C4254CC22E6
:101540002146641C4254DD222146641C4254EE2292
:101550002146641C4254FF222146641C425401224D
:101560002046611CCCB201A90A5402222046611C0B
:10157000CCB201A90A5403222046611CCCB201A9B5
:101580000A549DF8041001A800F06BFC020A2046E2
:10159000611CCCB201A90A549DF8041001A800F006
:1015A00060FCC2B22046611CCCB201A90A5421469B
:1015B00001A800F080FB59E794A1404600F02FFD00
:1015C00000B953E792A1404600F029FD00B94DE76C
:1015D00090A1404600F023FD00B947E78EA14046A8
:1015E00000F01DFD00B941E78DA1404600F017FD58
:1015F00000B93BE78CA1404600F011FD00B935E78A
:101600008BA1404600F00BFD00B92FE78AA14046B0
:1016100000F005FD00B929E787A1404600F0FFFC76
:1016200000B923E786A1404600F0F9FC00B91DE7A8
:1016300086A1404600F0F3FC00B917E786A14046BA
:1016400000F0EDFC00B911E784A1404600F0E7FC92
:1016500000B90BE782A1404600F0E1FC00B905E7C4
:10166000404600F0D5FC18B1414680A000F048FD8E
:1016700000BFFBE62DE9F04399B0054689460026F8
:10168000B046002408E0002011A9085509A9085512
:1016900001A90855601CC4B2202CF4DB00240027EB
:1016A00056E036B1012E14D0022E2AD0032E48D196
:1016B0003EE0285D202805D1701CC6B24FF001081D
:1016C000002705E02A5D3846791CCFB211A90A54DB
:1016D00037E0285D202808D1B8F1000F05D1701C33
:1016E000C6B24FF0010800270AE0285D202807D085
:1016F0002A5D3846791CCFB209A90A544FF0000878
:101700001FE0285D202807D1B8F1000F04D1701C1C
:10171000C6B24FF0010814E0285D202807D02A5DEA
:101720003846791CCFB201A90A544FF0000808E0EE
:10173000285D202804D1B8F1000F01D14FF0040832
:1017400000BF00BFB8F1040F00D103E0601CC4B2B9
:101750004C45A6DB00BF4FA000F0D2FC01AA09A9AE
:1017600011A8FFF775FE4CA000F0CAFC19B0BDE847
:10177000F0830000180000200D0A202573000000EF
:101780000D0A20000050000061726D72657365746F
:1017900000000000626C5F6C6576656C0000000004
:1017A0006265657000000000626C5F736574000024
:1017B0007265765F656E61626C6500006932635FB9
:1017C00073656E64000000000D0A693263323D20CB
:1017D000307825782C307825780000000D0AB7A2E3
:1017E000CBCD37343139D0B4D6B8C1EE00000000CB
:1017F0007265736574000000617564696F6D75745E
:101800006500000068656C70000000004143000046
:101810006163000075736200726164696F000000AB
:101820006E61766900000000636F6E740000000056
:10183000626F6F74000000006C6F676F6E000000D5
:10184000726576657273656F6E000000726576650D
:101850007273656F666600007777310077773000C6
:101860007466747265736574000000000D0A0D0AD9
:1018700020CEDEB4CB202725732720C3FCC1EEA3E6
:10188000ACC7EBBACBB6D4C3FCC1EECAE4C8EBA379
:10189000A10D0A000D0A00000D0A204D4355203EFF
:1018A0002000000070B505460E460024B01CC6B2EC
:1018B0002978284600F0D5FA010AB01E2954297863
:1018C000284600F0CEFAC1B2701E295491A000F053
:1018D00017FC91A000F014FC21E0022C03D193A08E
:1018E00000F00EFC05E0B01EA04202D190A000F076
:1018F00007FC295D8FA000F003FC1CB98FA000F04D
:10190000FFFB0AE0012C03D18DA000F0F9FB04E0FD
:10191000022C02D18BA000F0F3FB601CC4B2B442D5
:10192000DBDB70BD417808290DD2DFE801F004054A
:10193000060708090A0B07E006E005E004E003E0FB
:1019400002E001E000E000BF00BF704741780829D5
:101950001CD2DFE801F0041B0506071B1B0816E07C
:1019600015E014E013E08178012904D14168097879
:101970000D290AD009E08178032906D0817832291F
:1019800003D08178332900D000BF00E000BF00BF42
:10199000704710B504462078012806D0022808D0E8
:1019A00003280AD004280AD108E02046FFF7BAFF2E
:1019B0000AE02046FFF7CAFF06E005E004E02178D0
:1019C00062A000F09DFB00BF00BF10BD1FB503A9C2
:1019D0006B48FFF7B4FB00287FD06A48007830B12D
:1019E000012810D002281DD0032871D128E09DF8CD
:1019F0000C00AA2803D101206249087002E00020EF
:101A00006049087068E09DF80C00552806D1022056
:101A10005C49087000205C49087002E000205949C8
:101A2000087059E09DF80C10574802780078401C67
:101A3000554B1870554881540320524908704BE0AB
:101A40009DF80C10504802780078401C4E4B1870DE
:101A50004E48815418460078962802DB00204949F8
:101A600008704A4800784849097888422FDC47487E
:101A7000017800F0C1F908B9012000E00020044617
:101A8000F4B142480178FFF70DFF404840788DF8E7
:101A900000003E4880788DF801003C48C0788DF801
:101AA00002003A48001D0190001F0078801FC0B25C
:101AB0008DF808006846FFF76CFF04E00DE007E0D2
:101AC00033A000F01DFB00202E49087000BF03E08A
:101AD00000202C49087000BF00BF1FBD817802297B
:101AE00017D08178032914D08178062911D0817804
:101AF000312904D14168097801290AD009E08178A7
:101B0000322906D08178362903D08178302900D057
:101B100000BF70470D0A00000D0A41524DD6B8C1F2
:101B2000EE3E3E3E3E3E3E3E3E200000205B00003C
:101B3000205D20002025303278000000284C29004C
:101B40002847290028434D44290000000D0A202879
:101B500048616E646C6541726D4672616D6529CA3B
:101B6000D5B5BDCEB4C4DCCAB6B1F0B5C441524D92
:101B7000CAFDBEDDB0FC3D2578A3A1200D0A000002
:101B80007C0800204000002041000020901C002024
:101B90002F722F6ED0A3D1E94E47000000B585B05B
:101BA000012144F20400FEF73BFF4FF40070ADF852
:101BB000100018208DF8130003208DF8120004A9DE
:101BC0006348FEF791FC4FF48060ADF810000420EC
:101BD0008DF8130004A95E48FEF786FC4FF4E1304F
:101BE00000900020ADF80400ADF80600ADF8080044
:101BF000ADF80C000C20ADF80A0069465548FEF718
:101C0000BCFF012240F225515248FFF730F8012174
:101C10005048FFF720F840214E48FFF7E4F805B0A0
:101C200000BD00B585B00121C804FEF706FF012103
:101C30000846FEF7F5FE01211020FEF7F1FE4FF4F5
:101C40008060ADF8100018208DF8130003208DF887
:101C5000120004A94048FEF747FC4FF40060ADF8BD
:101C6000100004208DF8130004A93B48FEF73CFC4B
:101C70004FF4E13000900020ADF80400ADF806000C
:101C8000ADF80800ADF80C000C20ADF80A0069466C
:101C90003248FEF772FF012240F225512F48FEF72D
:101CA000E6FF01212D48FEF7D6FF40212B48FFF724
:101CB0009AF805B000BD2DE9F04105460E46002416
:101CC00027A000F01DFA27A000F01AFA21E0022C4C
:101CD00003D129A000F014FA05E0B01EA04202D101
:101CE00026A000F00DFA295D25A000F009FA1CB924
:101CF00025A000F005FA0AE0012C03D123A000F092
:101D0000FFF904E0022C02D121A000F0F9F9601CD7
:101D1000C4B2B442DBDBAA211F48FFF7F7F9552113
:101D20001D48FFF7F3F9002706E015F8011B1A48D4
:101D3000FFF7ECF9781CC7B2B742F6DB012240F29C
:101D400027710648FEF793FF0120BDE8F0810000EF
:101D5000000801400038014000100140004C0040E4
:101D60000D0A00000D0A4D4355D6B8C1EE3E3E3E69
:101D70003E3E3E3E3E200000205B0000205D2000F5
:101D80002025303278000000284C290028472900FF
:101D900028434D44290000006804002008B54FF492
:101DA000E060FFF759F825208DF8000000208DF83D
:101DB000020001208DF803006846FFF752F8342036
:101DC0008DF8000001208DF802008DF803006846B0
:101DD000FFF747F808BD000070B504460D46E1B2B4
:101DE0006148FEF7A0FF00BF40215F48FEF7F2FF09
:101DF0000028F9D0204670BD70B502460B464FF65C
:101E0000FF7115461AE0802415E001F4004038B156
:101E10004FF6FF7000EA410141F22100414003E02A
:101E20004FF6FF7000EA41012878204010B141F2DE
:101E3000210041406410002CE7D16D1C181EA3F155
:101E40000106F3B2DFD1CEB2581E105C864206D135
:101E5000981E105CB0EB112F01D1012070BD002045
:101E6000FCE770B502460C464FF6FF7013461AE0C9
:101E7000802115E000F400453DB14FF6FF7505EAFD
:101E8000400041F22105684003E04FF6FF7505EA86
:101E900040001D780D4015B141F221056840491000
:101EA0000029E7D15B1C251EA4F10106F4B2DFD1A5
:101EB00070BD2E480088401C80B22C490880B0F5C7
:101EC000FA6F02DD002008804DE02849088800EB09
:101ED000D0714910A0EB410111B9012024490870CB
:101EE00022480088052190FBF1F201FB120010B995
:101EF0000120204908701D4800880A2190FBF1F25A
:101F000001FB120010B901201B4908701748008816
:101F1000142190FBF1F201FB120010B901201749C6
:101F2000087012480088322190FBF1F201FB120088
:101F300010B90120124908700C480088642190FBF8
:101F4000F1F201FB120010B901200E490870074898
:101F500000884FF47A7190FBF1F201FB120010B986
:101F60000120094908707047003801404A000020EC
:101F700042000020430000204400002045000020D3
:101F800046000020470000204800002008B501213D
:101F90000820FEF745FD4FF40050ADF80000032087
:101FA0008DF8020010208DF8030069460D48FEF7F9
:101FB0009BFA08BD10B50C49087800EBD0714910A8
:101FC000A0EB4101084A1170104602784FF400510D
:101FD0000448FEF73AFB04480078401C02490870A8
:101FE00010BD0000000C01404C000020D2B201E006
:101FF00000F8012B491EFBD270470022F6E710B50E
:1020000013460A4604461946FFF7F0FF204610BD66
:10201000421C10F8011B0029FBD1801A704710B533
:10202000002200E0521C835C8C5CA34201D1002B97
:10203000F8D1D8B2E1B2401A10BD2DE9F05F0546E3
:10204000002092469B4688460646814640241BE077
:10205000284641464746224600F041F853465A4634
:10206000C01A914110D311461846224600F028F8B4
:102070002D1A67EB01084F4622460120002100F08F
:102080001FF817EB00094E41201EA4F10104DFDC0C
:10209000484631462A464346BDE8F09F064C074D68
:1020A00006E0E06840F0010394E807009847103428
:1020B000AC42F6D3FEF740F884260008A4260008B8
:1020C000202A04DB203A00FA02F1002070479140F8
:1020D000C2F1200320FA03F3194390407047202AED
:1020E00004DB203A21FA02F00021704721FA02F3C2
:1020F000D040C2F1200291400843194670470000C9
:102100000FB4054B10B503A9044A029800F018F863
:1021100010BC5DF814FB0000D91D00085000002021
:1021200002E008C8121F08C1002AFAD170477047A0
:10213000002001E001C1121F002AFBD170470000FE
:102140002DE9FF4F8DB00F460546002606E02528F5
:102150000BD0DDE90F1290476D1C761C2878002803
:10216000F5D111B03046BDE8F08F0024A246A1465B
:102170000122EC4900E0044315F8013F203B02FA3C
:1021800003F00842F7D128782A2810D06FF02F02E8
:102190002878A0F13001092914D80AEB8A0102EB52
:1021A000410144F0020400EB010A6D1CF0E701CF8D
:1021B0005FEA000A03D544F40054CAF1000A44F06F
:1021C00002046D1C28782E2817D115F8010F44F051
:1021D00004042A280ED06FF02F022878A0F13001D5
:1021E00009290AD809EB890102EB410100EB010939
:1021F0006D1CF2E757F8049B6D1C28786C280FD0F3
:1022000006DC4C2817D068280DD06A2814D104E0C9
:10221000742810D07A280FD10DE044F400140AE09D
:1022200044F4801401E044F440146978814202D1FE
:1022300004F580146D1C6D1C2A786E2A1FD00CDCEE
:10224000632A31D004DC002A8BD0582A11D1A3E0B4
:10225000642A68D0692A0CD165E0732A2ED004DC88
:102260006F2A73D0702A04D19BE0752A6FD0782A28
:102270006ED01046DDE90F129047761C50E1C4F392
:102280000250022806D0032809D0042801CF09D023
:10229000066045E101CFF117C0E9006140E101CFDF
:1022A00006803DE106703BE117F8040B8DF8000055
:1022B00000208DF80100EB46012003E057F804BB35
:1022C0004FF0FF3061074FF0000102D40DE008F13C
:1022D0000101884649450FDA8045F8DB1BF80810F4
:1022E0000029F4D108E008F1010188468142FADBB7
:1022F0001BF808100029F6D1DDE90F23AAEB08002E
:102300008146214600F036F9304400EB080604E02F
:10231000DDE90F121BF8010B9047B8F10108F7D265
:1023200021464846F7E00A21C4F302534FF0000B60
:102330000891022B04D001CFC117032B09D00AE06A
:10234000FF1D27F00707F7E8020108E032E01FE071
:1023500020E000B2C117042B01D140B2C117031E07
:1023600071F1000307DA4FF0000CD0EB0C006CEBBE
:1023700001012D2302E0230504D52B238DF8243001
:10238000012303E0E30701D02023F7E7984658E054
:102390000A2110E010210EE010204FF0000B0890F1
:1023A0000CE010214FF0000B44F004044FF008093A
:1023B000089103E008214FF0000B0891C4F3025389
:1023C000022B04D001CF0021032B06D006E0FF1D15
:1023D00027F00707F7E8020103E080B2042B00D1E1
:1023E000C0B24FF0000823072BD5702A07D0DDF8C4
:1023F00020C08CF0100C5CEA0B0C05D00EE04023E2
:102400008DF82430012308E050EA010306D0302380
:102410008DF824308DF8252002239846DDF820C061
:102420008CF0080C5CEA0B0C0BD150EA010301D1D3
:10243000630706D530238DF824304FF00108A9F149
:102440000109582A04D038A20B9208AA0A920BE07C
:102450003AA2F9E75B46089AFFF7EFFD0B9B9B5CFE
:102460000A9A521E0A92137050EA0102F2D10A9897
:10247000ADEB000000F1200B600702D524F480349E
:1024800001E04FF00109D94502DDA9EB0B0000E0A6
:10249000002000EB0B0141440890AAEB010AE00385
:1024A00006D4DDE90F232146504600F063F80644C8
:1024B0004FF0000908E009A911F80900DDE90F1241
:1024C000904709F10109761CC145F4DBE0030CD506
:1024D000DDE90F232146504600F04CF8064404E0A5
:1024E000DDE90F1230209047761C0899481E0890AD
:1024F0000029F5DC08E00A980A990078491C0A913D
:10250000DDE90F129047761CBBF10001ABF1010B26
:10251000F1DC21465046DDE90F2300F019F80644AE
:102520006D1C1BE609280100303132333435363753
:10253000383961626364656600000000303132330F
:1025400034353637383941424344454600000000AF
:102550002DE9F041044600251E461746880404D4A0
:1025600005E039462020B0476D1C641EF9D5284689
:10257000BDE8F0812DE9F041044600251E46904655
:10258000C80301D5302700E02027880404D505E0E2
:1025900041463846B0476D1C641EF9D52846BDE853
:1025A000F081000073746172745F6D75736963000C
:1025B000626C5F6C6576656C2076616C203D20B145
:1025C000B3B9E2B5C8BCB62076616C0073746172B1
:1025D000745F766964656F0073746172745F7261B1
:1025E00064696F007265736574203D20B8B4CEBB1A
:1025F000000000006932635F73656E64207375626A
:10260000616464726573732076616C203D20693269
:1026100063B5F7CAD40000007265765F656E6162CB
:102620006C65203D20B5B9B3B5BFAAC6F42FB9D8A3
:10263000B1D50000626C5F7365742031206F722029
:1026400030203D20B1B3B9E2BFAAC6F42FB9D8B14A
:10265000D5000000617564696F6D75746520203167
:10266000206F722030203D20BEB2D2F4BFAAC6F443
:102670002FB9D8B1D500000068656C70203D20B03E
:10268000EFD6FA00A4260008000000205400000045
:1026900020210008F826000854000020D41E000065
:1026A00030210008000000000102030401020304BD
:1026B0000607080902040608000000007826000842
:1026C000E425000834260008B02500081826000874
:1026D000F425000854260008D8250008A425000881
:1026E000CC250008000000000000000000000000F1
:0826F0000000000000000000E2
:0400000508000147A7
:00000001FF
