:020000040800F2
:10000000000400204701000875010008770100087E
:100010007B0100087F010008830100080000000048
:100020000000000000000000000000008701000840
:1000300089010008000000008B0100088D01000804
:1000400067010008670100086701000867010008F0
:1000500067010008670100086701000867010008E0
:1000600067010008670100086701000867010008D0
:1000700067010008670100086701000867010008C0
:1000800067010008670100086701000867010008B0
:1000900067010008670100086701000867010008A0
:1000A0006701000867010008670100086701000890
:1000B0006701000867010008670100086701000880
:1000C0006701000867010008670100086701000870
:1000D0006701000895010008670100086701000832
:1000E0006701000867010008670100086701000850
:1000F0006701000867010008670100086701000840
:10010000670100086701000867010008670100082F
:10011000190200086701000867010008670100086C
:10012000670100086701000867010008670100080F
:10013000DFF80CD003F0B0F900480047D502000802
:10014000881F0020704708488047084981F30888C5
:1001500007480047FEE7FEE7FEE7FEE7FEE7FEE7AB
:10016000FEE7FEE7FEE7FEE745010008881F0020E6
:1001700031010008704700BFFEE700BFFEE700BF87
:10018000FEE700BFFEE770477047704710B502F00A
:100190006DF910BD10B540F22551494800F02AFE16
:1001A00001280CD1464800F0C6FDC4B2214645489E
:1001B00001F0E8FA40F22551414800F041FE4FF4C9
:1001C00058713F4800F016FE012805D14FF45871D0
:1001D0003B4800F035FE10BD40F22441384800F0A5
:1001E00009FE012805D140F22441354800F028FEDF
:1001F000F1E740F22771324800F0FCFD28B10022FF
:1002000040F227712E4800F036FD40F226612C485E
:1002100000F016FE00BFDEE738B540F225512A484F
:1002200000F0E8FD01280CD1274800F084FDC4B29D
:100230002146264801F0A6FA40F22551224800F056
:10024000FFFD4FF45871204800F0D4FD012805D17E
:100250004FF458711C4800F0F3FD38BD40F22441C2
:10026000194800F0C7FD012805D140F22441164885
:1002700000F0E6FDF1E740F22771134800F0BAFD07
:10028000B0B100200090124801F06FFA48B96946F9
:100290000F4801F090FA9DF800000B49091D0880F5
:1002A00005E0002240F22771074800F0E4FC00BF9F
:1002B00040F22661044800F0C3FD00BFCDE7000016
:1002C0000038014054000020004C00407C08002011
:1002D0006804002001F0DCF900F081F838E01D48E6
:1002E0000078012802D100201A4908701A480078C5
:1002F000012802D100201849087018480078012808
:1003000002D100201549087015480078012802D153
:1003100000201349087013480078012802D10020FA
:100320001049087010480078012802D100200E49B9
:1003300008700E480078012806D102F041FA02F058
:1003400017F900200949087001F052FE01F080FB06
:10035000C5E70000420000204300002044000020C8
:1003600045000020460000204700002048000020F3
:1003700070B52249B1F1807F00D31DE021F07F40AC
:10038000401E4FF0E022506150170F22002807DA7C
:1003900013071D0E1A4B00F00F04241F1D5503E018
:1003A00013071C0E174B1C5400BF00204FF0E02217
:1003B00090610720106100BF4FF48062124913481A
:1003C00001F09CF94FF480621149124801F096F94E
:1003D0004FF480621049114801F090F970BD10B5DA
:1003E000FFF7C6FF02F0B0F801F0EAFE01F02BFFC4
:1003F00001F0E6FF02F0DEF910BD00004019010037
:1004000018ED00E000E400E0900C00205400002013
:10041000901000207C080020901400206804002028
:1004200010B50446C649601A8C422FD009DCC54875
:10043000204480B1B0F5806F16D0B0F5006F4AD17E
:100440001BE0B0F5806F2AD0B0F5006F30D0B0F56A
:10045000406F40D135E00121042000F0FFFA002177
:10046000042000F0FBFA37E00121082000F0F6FA42
:100470000021082000F0F2FA2EE00121102000F007
:10048000EDFA0021102000F0E9FA25E001212020FA
:1004900000F0E4FA0021202000F0E0FA1CE0012145
:1004A000402000F0DBFA0021402000F0D7FA13E0F2
:1004B0000121802000F0D2FA0021802000F0CEFA45
:1004C0000AE00121080200F0C9FA00214FF480700F
:1004D00000F0C4FA00E000BF00BF10BD10B501215C
:1004E000084600F0BBFA0021012000F0B7FA10BD69
:1004F0002DE9F041024600250026002000230024BB
:10050000002791F803C00CF00F0591F803C00CF020
:10051000100CBCF1000F03D091F802C04CEA0505A5
:1005200091F800C0BCF1000F31D0146800202BE01E
:100530004FF0010C0CFA00F3B1F800C00CEA03060E
:100540009E4220D183004FF00F0C0CFA03F7BC43FE
:1005500005FA03FC4CEA040491F803C0BCF1280F2F
:1005600006D14FF0010C0CFA00FCC2F814C00AE0EE
:1005700091F803C0BCF1480F05D14FF0010C0CFA03
:1005800000FCC2F810C0401C0828D1D31460B1F898
:1005900000C0BCF1FF0F34DD546800202EE000F1F4
:1005A000080C4FF0010808FA0CF3B1F800C00CEA8F
:1005B00003069E4221D183004FF00F0C0CFA03F783
:1005C000BC4305FA03FC4CEA040491F803C0BCF1F7
:1005D000280F05D100F1080C08FA0CF8C2F81480B5
:1005E00091F803C0BCF1480F07D100F1080C4FF09F
:1005F000010808FA0CF8C2F81080401C0828CED375
:100600005460BDE8F0814FF6FF71018002218170D6
:100610000421C17070470246002093680B400BB163
:10062000012000E0002070470146886880B27047D2
:1006300002460020D3680B400BB1012000E00020EF
:1006400070470146C86880B27047016170474161D8
:1006500070470AB1016100E041617047C1607047B5
:100660004FF480320A4382618161826182698269CA
:10067000704702460020344B18684FF680731840CC
:1006800040EA02100843304B186070472F49C86198
:100690007047F0B50A4600230024002100252A4EA9
:1006A0007168C0F3034583B200F44016B6F5401FED
:1006B00008D121F07061244E766826F07066224FD2
:1006C0007E6012E000F48016B6F5801F06D1032686
:1006D00006FA05F4A14341F0706106E0460D3601CB
:1006E00003FA06F6B14341F0706122B1460D3601BE
:1006F00003FA06F63143144E7160F0BD30B50022A6
:100700008B071C0F0F2303FA04F20F4B08338C10D6
:1007100053F8243093430C4C08348D1044F82530A2
:1007200023468C1053F824308C07240F00FA04F46D
:100730002343054C08348D1044F8253030BD0000AB
:100740000014014000F8FEBF0000014000002042FC
:10075000DE48006840F00100DC4908600846406857
:10076000DB490840D949486008460068D949084033
:10077000D64908600846006820F4802008600846D2
:10078000406820F4FE004860002088607047CF4930
:10079000096821F48031CD4A11601146096821F4BD
:1007A00080211160B0F5803F03D0B0F5802F0ED1CD
:1007B00006E0C649096841F48031C44A116007E087
:1007C000C249096841F4A021C04A116000E000BF9D
:1007D00000BF704710B501460022002300204A11D7
:1007E000012A02D1B94C236806E0022A02D1B74C93
:1007F000236A01E0B54C636A01F01F0201249440B2
:100800001C400CB1012000E0002010BD38B50020D4
:1008100000900024002500BF3120FFF7DBFF0546D4
:100820000098401C00901DB90098B0F5A06FF3D15E
:100830003120FFF7CFFF08B1012400E0002420465B
:1008400038BD01460020A14A106820F0F80040EAB7
:10085000C10010607047A049086070470246002040
:100860009A4B586820F47C1042EA01031843974BD6
:100870005860704798490866704701460020934ABF
:10088000506820F003000843506070478F4840686C
:1008900000F00C007047014600208C4A506820F0A0
:1008A000F00008435060704701460020874A5068B6
:1008B00020F4E06008435060704701460020834AFE
:1008C000506820F4605040EAC1005060704729B180
:1008D0007E4A527A02437D4B5A7204E07B4A527A36
:1008E00082437A4B5A7270477B49D831086070470F
:1008F00001460020754A506820F44040084350608B
:1009000070470021714A20321170704A82F820101D
:10091000012802D004280AD104E001216B4A2032C8
:10092000117005E00521694A2032117000E000BF16
:1009300000BF70476949086070476449096A01430C
:10094000624A11627047654944390860704730B5A2
:1009500000210022002400235C4D6D6805F00C018D
:1009600021B1042905D0082923D105E05C4D05609B
:1009700022E05B4D05601FE0544D6D6805F4701278
:10098000022505EB9242514D6D6805F480341CB987
:10099000544D554305600BE04C4D6D6805F4003532
:1009A0001DB1504D5543056002E04D4D5543056066
:1009B00002E04B4D056000BF00BF444D6D6805F07F
:1009C000F0010909484D6B5C0568DD4045603F4D0D
:1009D0006D6805F4E061090A434D6B5C4568DD40D4
:1009E00085603A4D6D6805F46051C90A3E4D6B5CF7
:1009F0004568DD40C560354D6D6805F44041890BA3
:100A00003A4D6B5CC568B5FBF3F5056130BD29B1A6
:100A10002E4A526902432D4B5A6104E02B4A526917
:100A200082432A4B5A61704729B1284A926902438E
:100A3000264B9A6104E0254A92698243234B9A61CE
:100A4000704729B1214AD2690243204BDA6104E0A0
:100A50001E4AD26982431D4BDA61704729B11B4A95
:100A6000D2680243194BDA6004E0184AD268824324
:100A7000164BDA60704729B1144A12690243134BCE
:100A80001A6104E0114A12698243104B1A617047DF
:100A900012494039086070470F49C86470470B49D4
:100AA000C87170470948406A40F080700749486241
:100AB000704701460020054A92680A400AB10120A9
:100AC00000E0002070470149887270470010024022
:100AD0000000FFF8FFFFF6FE0000424280044242A1
:100AE00000127A0000093D000000002010000020E4
:100AF00010B50446D749601A8C422BD006DCD64884
:100B0000204498B1B0F5806F38D119E0B0F5806F0E
:100B10002AD0B0F56C4F31D101218803FFF79EFF39
:100B200000214FF48040FFF799FF28E0012148049D
:100B3000FFF7A1FF00214FF40030FFF79CFF1EE0FC
:100B400001218804FFF797FF00214FF48020FFF771
:100B500092FF14E00121C804FFF78DFF00214FF43C
:100B60000020FFF788FF0AE001210805FFF783FF57
:100B700000214FF48010FFF77EFF00E000BF00BFB0
:100B800010BD2DE9F04786B005460E460024A2466A
:100B900000BF00BF00272F462C8A4CF6FF70044090
:100BA000F08804432C82AC894EF6F3100440B088E0
:100BB00031890843718908430443AC81AC8A4FF6FC
:100BC000FF400440B0890443AC8201A8FFF7BFFE98
:100BD000A248874202D1DDF810A001E0DDF80CA0A8
:100BE0000AEBCA0000EB0A1031688900B0FBF1F88B
:100BF0006420B8FBF0F004012009642101FB108996
:100C0000322000EB0910B0FBF1F000F00F000443BC
:100C10002C8106B0BDE8F0874FF416510160002129
:100C20008180C18001810C21418100218181704737
:100C300010B502460020108A4FF2FF0318400B88BF
:100C40004C8823438C882343CC8823431843108249
:100C500010BD0021018041808180C180704721B199
:100C6000828942F40052828104E082894DF6FF734A
:100C70001A4082817047F0B5034600240026002503
:100C800000201846C1F3421401F01F06012707FA9D
:100C900006F5012C01D10C3004E0022C01D11030FA
:100CA00000E014301AB107682F43076002E00768BC
:100CB000AF430760F0BD1AB1838A0B43838202E021
:100CC000838A8B4383827047028A4FF6F0731A40FF
:100CD0000282028A0A430282704782894FF2FF73BE
:100CE0001A40828182890A438281704721B18289B8
:100CF00042F00202828104E082894FF6FD731A40BD
:100D000082817047028A4FF6DF731A400282028A9C
:100D10000A430282704721B1028A42F48042028271
:100D200004E0028A4BF6FF731A4002827047C1F357
:100D300008028280704701468888C0F30800704727
:100D4000818941F0010181817047028BD2B2028317
:100D5000028B42EA012202837047028B02F47F4237
:100D60000283028B0A430283704721B1828A42F0D8
:100D70002002828204E0828A4FF6DF731A40828268
:100D8000704721B1828A42F01002828204E0828A96
:100D90004FF6EF731A408282704721B1828A42F087
:100DA0000802828204E0828A4FF6F7731A40828238
:100DB0007047828A4FF6FB731A408282828A0A4306
:100DC0008282704721B1828A42F00202828204E06C
:100DD000828A4FF6FD731A408282704702460020D5
:100DE00013880B400BB1012000E000207047CA437C
:100DF0000280704770B502460B4600240021002592
:100E00000020C3F3421503F01F01012606FA01F189
:100E1000012D02D19689314006E0022D02D1168AB9
:100E2000314001E0968A31401C12012606FA04F492
:100E30001688344011B10CB1012000E0002070BDD3
:100E400010B5002200230A1201249440A3B2DC430F
:100E5000048010BD004C004000BCFFBF00380140C2
:100E600031490143314A1160704770B500210023B8
:100E70000F22C47804B32D4C246804F4E064C4F554
:100E8000E064210AC1F10403CA40447804FA03F182
:100E90008478144021430901254C0678A155047833
:100EA00004F01F050124AC4005786D11AD0005F17B
:100EB000E025C5F8004109E0047804F01F0501248D
:100EC000AC401C4D0678761145F8264070BD1A4A94
:100ED0000A400243154B1B1F1A60704739B1134A71
:100EE000121D12680243114B1B1D1A6006E00F4AC7
:100EF000121D126882430D4B1B1D1A607047042897
:100F000008D14FF0E021096941F004014FF0E022DF
:100F1000116107E04FF0E021096921F004014FF071
:100F2000E0221161704700000000FA050CED00E0BE
:100F300000E400E080E100E080FFFF1F016821F095
:100F4000010101600021016041608160C160874A48
:100F5000811A90425BD012DC854AA0EB02019042DC
:100F60003AD007DC83490144D9B1142922D0282979
:100F70007AD128E0142938D0282975D13EE0B1F57E
:100F80006C7F5BD006DCB1F5627F49D0B1F5677F3D
:100F90006AD14CE0B1F5717F57D0B1F5767F63D15E
:100FA0005BE073494439496841F00F01704A443AA3
:100FB00051605AE06E494439496841F0F0016C4A89
:100FC000443A516051E06A494439496841F47061DA
:100FD000674A443A516048E065494439496841F4F8
:100FE0007041634A443A51603FE06149443949687D
:100FF00041F470215E4A443A516036E05C4944391C
:10100000496841F470015A4A443A51602DE0584908
:101010004439496841F07061554A443A516024E0CE
:101020005549096841F00F01534A11601DE05249CA
:10103000096841F0F001504A116016E04E49096814
:1010400041F470614C4A11600FE04B49096841F46A
:101050007041494A116008E006E04749096841F4D7
:101060007021454A116000E000BF00BF704710B515
:101070000022026847F6F0739A430C6A8B68234398
:101080000C6923434C6923438C692343CC69234374
:101090004C6A23438C6A23431A430260CB68436043
:1010A0000B6883604B68C36010BD00210160416024
:1010B0008160C160016141618161C1610162416220
:1010C0008162704721B1026842F00102026003E0D0
:1010D000026822F00102026070471AB103680B43F4
:1010E000036002E003688B43036070470146486871
:1010F00080B2704701460020002201F080531BB1EE
:101100001D4B1B1F1A6802E0194B443B1A6802EA88
:1011100001030BB1012000E00020704700F0805176
:1011200011B11549086002E011494439486070471F
:1011300001460020002201F080531BB10E4B1B1F03
:101140001A6802E00A4B443B1A6802EA01030BB139
:10115000012000E00020704700F0805111B10649E5
:10116000086002E00249443948607047800002404C
:1011700044000240F8FFFDBF0404024010B50446DD
:10118000F748204430B1B0F5806F0DD0B0F5C05FA6
:101190001ED113E001214802FFF760FC00214FF44B
:1011A0000070FFF75BFC14E001218802FFF756FC9A
:1011B00000214FF48060FFF751FC0AE00121C803D1
:1011C000FFF74CFC00214FF40040FFF747FC00E024
:1011D00000BF00BF10BD30B502460020002350689C
:1011E000E04C20400D790C6844EA0524204350600F
:1011F0009068DD4C2040D1E902542C434D7944EAFB
:10120000450420439060D06A20F470000C7C641E7A
:101210001C43E3B240EA0350D06230BD00210160BC
:10122000017141718160C16001210174704721B178
:10123000826842F00102826003E0826822F00102CB
:101240008260704721B1826842F48072826003E05C
:10125000826822F480728260704710B50023CBB29E
:101260001AB144681C43446002E044689C434460F3
:1012700010BD816841F0080181607047014600207F
:101280008A6802F008020AB1012000E000207047DD
:10129000816841F0040181607047014600208A683E
:1012A00002F004020AB1012000E00020704721B1E1
:1012B000826842F4A002826003E0826822F4A00205
:1012C00082607047014600208A6802F480020AB1F9
:1012D000012000E00020704710B50A4600210023DD
:1012E000416821F46041531E41EA4331416010BD21
:1012F00021B1426842F40062426003E0426822F495
:10130000006242607047F0B504460D46002000219F
:10131000092D11DDE068A5F10A0606EB4607072650
:1013200006FA07F18843A5F10A0606EB460603FA1A
:1013300006F10843E0600CE0206905EB450707264D
:1013400006FA07F1884305EB450603FA06F1084360
:101350002061072A0FDA606B561E06EB86071F26F0
:1013600006FA07F18843561E06EB860605FA06F1D3
:101370000843606322E00D2A0FDA206BD61F06EBCC
:1013800086071F2606FA07F18843D61F06EB860656
:1013900005FA06F10843206310E0E06AA2F10D06A9
:1013A00006EB86071F2606FA07F18843A2F10D0611
:1013B00006EB860605FA06F10843E062F0BD21B1AE
:1013C000826842F48012826003E0826822F4801214
:1013D000826070470146C86C80B2704763480068FD
:1013E000704721B1426842F48062426003E0426883
:1013F00022F480624260704721B1426842F4805218
:10140000426003E0426822F48052426070470A461C
:101410000021816821F4E04111438160704721B1CE
:10142000826842F40042826003E0826822F4004253
:101430008260704721B1826842F40212826003E048
:10144000826822F4021282607047014600208A6896
:1014500002F400120AB1012000E000207047F0B54C
:1014600004461546002000220026092911DDE06807
:10147000A1F10A0707EB470C072707FA0CF2904384
:10148000A1F10A0707EB470703FA07F21043E060F0
:101490000CE0206901EB410C072707FA0CF290439E
:1014A00001EB410703FA07F210432061A06BC0F380
:1014B0000156EF1C06F1010CA7EB0C0707EB870C9C
:1014C0001F2707FA0CF29043EF1C06F1010CA7EB63
:1014D0000C0707EB870701FA07F21043A063F0BD82
:1014E00010B50A4600210023816B21F44011531EE0
:1014F00041EA0351816310BD4250704702465018C3
:10150000806A80B270470A4600214168184B194032
:101510001143416070474162826270470A46002170
:10152000416821F01F0111434160704740B10F49EC
:101530004439096841F400010C4A443A116007E05B
:101540000A494439096821F40001084A443A116003
:1015500070470246002013680B405BB101200AE08F
:1015600000DCFEBFFFFEF0FFFDF7F1FF4C24014061
:10157000FFFD3FFF00207047CA430260704770B50F
:1015800002460020002300240B125568CEB205EA63
:10159000060415681D4015B10CB1012000E00020C3
:1015A00070BD00220A12D343036070470CB50020BF
:1015B000019000904748006840F480304549086039
:1015C00000BF4448006800F4003000900198401CBF
:1015D0000190009818B90198B0F5A06FF1D13D487D
:1015E000006800F4003010B10120009001E00020FC
:1015F00000900098012844D13748006840F010005E
:10160000354908600846006820F003000860084675
:10161000006840F0020008602E4840682D4948608C
:101620000846406848600846406840F4806048606A
:101630000846406820F47C1048600846406840F442
:10164000E81048600846006840F08070086000BFFD
:101650002048006800F000700028F9D01D4840685C
:1016600020F003001B4948600846406840F0020033
:10167000486000BF1748406800F00C000828F9D106
:1016800001E000BFFEE70CBD10B5FFF78FFF10BDF6
:1016900010B51048006840F001000E490860084687
:1016A00040680E4908400B494860084600680C49EC
:1016B0000840084908600846006820F48020086057
:1016C0000846406820F4FE00486000208860FFF76C
:1016D000DBFF10BD00100240002002400000FFF8B8
:1016E000FFFFF6FE10B5002305E010F8014B01F8EE
:1016F000014B5C1CE3B29342F7DB10BD70B50446AE
:101700000E4615462660206810B963A001F008FF58
:1017100000206060A060E56070BD70B5044665683B
:1017200064A001F0FDFE05E02068415D65A001F0C8
:10173000F7FE6D1CE068B5FBF0F100FB1150A168ED
:101740008842F1D160A001F0EBFE70BD01468868CF
:10175000401CCA68B0FBF2F302FB13004A689042D7
:1017600001D1012070470020FCE70146D1E90102C8
:10177000904201D1012070470020FCE700218160E8
:101780004160704770B504460D462046FFF7DEFF06
:1017900020B14EA001F0C4FE002070BDA1682068F9
:1017A0004554A068401CE168B0FBF1F201FB120057
:1017B000A0600120F1E710B503460C461846FFF77C
:1017C000D4FF08B1002010BDD3E90001405C2070B7
:1017D0005868401CD968B0FBF1F201FB1200586058
:1017E0000120F0E72DE9F04104460F4615461E465C
:1017F0002760206810B928A001F092FE00206060E8
:10180000A060E5602661BDE8F08170B504460D4634
:1018100016462046FFF79AFF20B131A001F080FE66
:10182000002070BD2369A268206802FB03013246D4
:101830002846FFF757FF04F11400A1684654A0683A
:10184000401CE168B0FBF1F201FB1200A060012036
:10185000E7E7F0B504460E4615462046FFF785FF3C
:1018600008B10020F0BD04F114006168405C2870EC
:101870002769D4E9001303FB07102A783146FFF7E4
:1018800031FF6068401CE168B0FBF1F201FB12001F
:1018900060600120E6E700004D656D6F72792061A0
:1018A0006C6C6F636174696F6E206661696C7572D0
:1018B00065000000B6D3D6D0B5C4D4AACBD8CAC769
:1018C0003A0A0000256420000A0000000D0A20B634
:1018D000D3C1D0B2E5C8EBCAFDBEDDCAA7B0DC00FB
:1018E0000D0A20B6D3C1D0B2E5C8EBCAFDD7E9CA0C
:1018F000A7B0DC0008B569465748FFF75CFF002831
:101900000FD09DF800000D280CD1544801785448A0
:1019100000F0D2F90020534908705049087052492C
:10192000087094E05048007820B11B2852D05B2802
:101930004FD15EE09DF800001B2802D14A49087093
:1019400047E09DF8000008281DD14648007800288F
:101950003FDD44480078401E424908703F48007807
:10196000401E3E49087044235B221B213FA001F02A
:10197000D7FD40A001F0D4FD44235B221B213BA0F6
:1019800001F0CEFD25E09DF8001036480278007881
:10199000401C344B187032488154184600782F4947
:1019A0000978884203DD184600782C4908702D48D4
:1019B0000078B0F5806F07DB00202A4908702749BE
:1019C00008702949087004E09DF8001028A001F073
:1019D000A7FD3BE09DF800005B2802D1224908707A
:1019E00006E00020204908701C4908701D49087055
:1019F0002CE09DF80000412818D0422817D0432839
:101A000016D0442818D11748007800280DDD154855
:101A10000078401E1349087044235B221B2113A049
:101A200001F07EFD0020104908700DE000BF00BFEE
:101A300000200D49087007E000200B490870074995
:101A400008700849087000BF00BF00BF00BF08BD94
:101A500010B5FFF74FFF10BD540000201500002007
:101A60009018002014000020160000202563256334
:101A7000256300002000000010B5002407E0CE48D8
:101A800050F82410CDA001F04BFD601CC4B20A2C0C
:101A9000F5DBCCA001F044FD10BD0146002060291B
:101AA00001DD672903DB30290CDB39290ADC302909
:101AB00004DB392902DC01F00F0004E0A1F1570238
:101AC000D0B200E0002070472DE9F04387B0804697
:101AD0000E461746BCA000680690BCA1404601F027
:101AE000C8F910B907B0BDE8F083BBA1404601F0CA
:101AF000C0F900B9F6E7BBA1404601F0BAF900B958
:101B0000F0E7BAA1404601F0B4F900B9EAE7B9A19B
:101B1000404601F0AEF900B9E4E7B9A1404601F052
:101B2000A8F910BB3078FFF7B8FF05467078FFF7CB
:101B3000B4FF40EA0510C5B28DF818503878FFF7A9
:101B4000ACFF05467878FFF7A8FF40EA0510C5B25C
:101B50008DF819509DF819209DF81810ABA001F0D0
:101B6000DFFCAFA001F0DCFCBCE7B2A1404601F015
:101B700080F900B9B6E7B1A1404601F07AF900B9A1
:101B8000B0E7B1A1404601F074F9B0BB1821684636
:101B900001F05DF90024A146FFF76EFF0722214600
:101BA000641C0DF8012003222146641C0DF801205D
:101BB000BB222146641C0DF80120CC222146641C66
:101BC0000DF80120DD222146641C0DF8012021467C
:101BD000684600F023FC81464FEA19222146641C26
:101BE0000DF8012009F0FF022146641C0DF80120C8
:101BF0002146684600F071FB74E7FFE794A1404678
:101C000001F037F900B96DE792A1404601F031F9D2
:101C100000B967E790A1404601F02BF900B961E7F0
:101C20008EA1404601F025F900B95BE78DA1404641
:101C300001F01FF900B955E78CA1404601F019F9F0
:101C400000B94FE78BA1404601F013F900B949E70D
:101C50008AA1404601F00DF900B943E787A140464B
:101C600001F007F900B93DE786A1404601F001F90E
:101C700000B937E786A1404601F0FBF800B931E72B
:101C800086A1404601F0F5F800B92BE784A1404653
:101C900001F0EFF800B925E782A1404601F0E9F82C
:101CA00000B91FE7404601F0DDF818B1414680A0B9
:101CB00001F036FC00BF15E72DE9F04399B0054669
:101CC00089460026B046002408E0002011A90855E6
:101CD00009A9085501A90855601CC4B2202CF4DBE1
:101CE0000024002756E036B1012E14D0022E2AD04F
:101CF000032E48D13EE0285D202805D1701CC6B2D5
:101D00004FF00108002705E02A5D3846791CCFB264
:101D100011A90A5437E0285D202808D1B8F1000F36
:101D200005D1701CC6B24FF0010800270AE0285DFB
:101D3000202807D02A5D3846791CCFB209A90A5459
:101D40004FF000081FE0285D202807D1B8F1000FF0
:101D500004D1701CC6B24FF0010814E0285D2028A1
:101D600007D02A5D3846791CCFB201A90A544FF03A
:101D7000000808E0285D202804D1B8F1000F01D147
:101D80004FF0040800BF00BFB8F1040F00D103E01A
:101D9000601CC4B24C45A6DB00BF4FA001F0C0FBE5
:101DA00001AA09A911A8FFF78FFE4CA001F0B8FB0A
:101DB00019B0BDE8F0830000180000200D0A2025AE
:101DC000730000000D0A20000050000061726D7267
:101DD0006573657400000000626C5F6C6576656C0D
:101DE000000000006265657000000000626C5F73B7
:101DF000657400007265765F656E61626C650000F7
:101E00006932635F73656E64000000000D0A693219
:101E100063323D20307825782C307825780000001A
:101E20000D0AB7A2CBCD37343139D0B4D6B8C1EE14
:101E300000000000726573657400000061756469DC
:101E40006F6D75746500000068656C7000000000BF
:101E50004143000061630000757362007261646950
:101E60006F0000006E61766900000000636F6E74A1
:101E700000000000626F6F74000000006C6F676FFD
:101E80006E000000726576657273656F6E0000000B
:101E9000726576657273656F6666000077773100EC
:101EA00077773000746674726573657400000000A3
:101EB0000D0A0D0A20CEDEB4CB202725732720C3C0
:101EC000FCC1EEA3ACC7EBBACBB6D4C3FCC1EECA1F
:101ED000E4C8EBA3A10D0A000D0A00000D0A204D75
:101EE0004355203E2000000070B506460D460024F4
:101EF00091A001F015FB91A001F012FB21E0022C52
:101F000003D193A001F00CFB05E0A81EA04202D172
:101F100090A001F005FB315D8FA001F001FB1CB921
:101F20008FA001F0FDFA0AE0012C03D18DA001F091
:101F3000F7FA04E0022C02D18BA001F0F1FA601C48
:101F4000C4B2AC42DBDB70BD417808290DD2DFE8BA
:101F500001F00405060708090A0B07E006E005E0A2
:101F600004E003E002E001E000E000BF00BF7047D2
:101F7000417808291CD2DFE801F0041B0506071B85
:101F80001B0816E015E014E013E08178012904D164
:101F9000416809780D290AD009E08178032906D023
:101FA0008178322903D08178332900D000BF00E046
:101FB00000BF00BF704710B504462078012806D046
:101FC000022808D003280AD004280AD108E02046B5
:101FD000FFF7BAFF0AE02046FFF7CAFF06E005E078
:101FE00004E0217862A001F09BFA00BF00BF10BDA1
:101FF0001FB503A96B48FFF7DEFB00287FD06A48B6
:10200000007830B1012810D002281DD0032871D1EA
:1020100028E09DF80C00AA2803D10120624908702D
:1020200002E000206049087068E09DF80C00552827
:1020300006D102205C49087000205C49087002E06B
:1020400000205949087059E09DF80C105748027853
:102050000078401C554B1870554881540320524954
:1020600008704BE09DF80C10504802780078401C36
:102070004E4B18704E48815418460078962802DB63
:102080000020494908704A48007848490978884240
:102090002FDC4748017800F0C1F908B9012000E0C1
:1020A00000200446F4B142480178FFF71DFF404884
:1020B00040788DF800003E4880788DF801003C485B
:1020C000C0788DF802003A48001D0190001F00788A
:1020D000801FC0B28DF808006846FFF76CFF04E06F
:1020E0000DE007E033A001F01BFA00202E49087034
:1020F00000BF03E000202C49087000BF00BF1FBDD7
:102100008178022917D08178032914D08178062993
:1021100011D08178312904D14168097801290AD088
:1021200009E08178322906D08178362903D0817878
:10213000302900D000BF70470D0A00000D0A41523F
:102140004DD6B8C1EE3E3E3E3E3E3E3E3E200000F5
:10215000205B0000205D2000202530327800000048
:10216000284C29002847290028434D442900000015
:102170000D0A202848616E646C6541726D4672617B
:102180006D6529CAD5B5BDCEB4C4DCCAB6B1F0B54B
:10219000C441524DCAFDBEDDB0FC3D2578A3A1204F
:1021A0000D0A00007C0800204000002041000020B3
:1021B000901C00202F722F6ED0A3D1E94E47000053
:1021C00000B585B0012144F20400FEF72DFC4FF468
:1021D0000070ADF8100018208DF8130003208DF862
:1021E000120004A96348FEF783F94FF48060ADF84C
:1021F000100004208DF8130004A95E48FEF778F95A
:102200004FF4E13000900020ADF80400ADF8060076
:10221000ADF80800ADF80C000C20ADF80A006946D6
:102220005548FEF7AEFC012240F225515248FEF718
:1022300022FD01215048FEF712FD40214E48FEF7D5
:10224000D6FD05B000BD00B585B00121C804FEF77C
:10225000F8FB01210846FEF7E7FB01211020FEF7FD
:10226000E3FB4FF48060ADF8100018208DF81300E8
:1022700003208DF8120004A94048FEF739F94FF405
:102280000060ADF8100004208DF8130004A93B484D
:10229000FEF72EF94FF4E13000900020ADF8040075
:1022A000ADF80600ADF80800ADF80C000C20ADF854
:1022B0000A0069463248FEF764FC012240F22551CB
:1022C0002F48FEF7D8FC01212D48FEF7C8FC40211D
:1022D0002B48FEF78CFD05B000BD2DE9F041054609
:1022E0000E46002427A001F01BF927A001F018F9E1
:1022F00021E0022C03D129A001F012F905E0B01E63
:10230000A04202D126A001F00BF9295D25A001F021
:1023100007F91CB925A001F003F90AE0012C03D14B
:1023200023A001F0FDF804E0022C02D121A001F06D
:10233000F7F8601CC4B2B442DBDB55211F48FFF73D
:1023400021FAAA211D48FFF71DFA002706E015F81B
:10235000011B1A48FFF716FA781CC7B2B742F6DB22
:10236000012240F227710648FEF785FC0120BDE8F6
:10237000F0810000000801400038014000100140D9
:10238000004C00400D0A00000D0A4D4355D6B8C15F
:10239000EE3E3E3E3E3E3E3E3E200000205B0000C4
:1023A000205D20002025303278000000284C2900D4
:1023B0002847290028434D442900000068040020D4
:1023C00008B54FF4E060FEF74BFD25208DF80000C6
:1023D00000208DF8020001208DF803006846FEF70A
:1023E00044FD34208DF8000001208DF802008DF8A6
:1023F00003006846FEF739FD08BD000070B50446CD
:102400000D46E1B24748FEF792FC00BF4021454827
:10241000FEF7E4FC0028F9D0204670BD70B50246F6
:102420000C464FF6FF7013461AE0802115E000F4C9
:1024300000453DB14FF6FF7505EA400041F2210528
:10244000684003E04FF6FF7505EA40001D780D4037
:1024500015B141F22105684049100029E7D15B1C04
:10246000251EA4F10106F4B2DFD170BD2E4800880C
:10247000401C80B22C490880B0F5FA6F02DD0020C4
:1024800008804DE02849088800EBD0714910A0EB86
:10249000410111B901202549087023480088052110
:1024A00090FBF1F201FB120010B9012020490870E5
:1024B0001D4800880A2190FBF1F201FB120010B9BF
:1024C00001201C49087018480088142190FBF1F283
:1024D00001FB120010B9012017490870124800884A
:1024E000322190FBF1F201FB120010B901201349D7
:1024F00008700D480088642190FBF1F201FB120086
:1025000010B901200E490870074800884FF47A710D
:1025100090FBF1F201FB120010B90120094908708B
:1025200070470000003801404A00002042000020AF
:102530004300002044000020450000204600002009
:10254000470000204800002008B501210820FEF7C0
:102550006BFA4FF40050ADF8000003208DF8020034
:1025600010208DF8030069460D48FDF7C1FF08BD36
:1025700010B50C49087800EBD0714910A0EB41016F
:10258000084A1170104602784FF400510448FEF7D3
:1025900060F804480078401C0249087010BD000033
:1025A000000C01404C00002008B501210420FEF77A
:1025B0003BFA01210820FEF737FA01211020FEF72F
:1025C00033FA3F20ADF8000000208DF80300694683
:1025D000FE48FDF78DFFFF20ADF8000000208DF8CC
:1025E00003006946FA48FDF783FF0320ADF80000B9
:1025F00000208DF803006946F548FDF779FF08BD16
:1026000000B591B001210846FEF701FA0121480208
:10261000FEF70AFAEF48FEF791FCEF480690EF4804
:102620000790002008901020099000200A90802038
:102630000B9040000C9080000D9020200E90000226
:102640000F900020109006A9E248FEF710FD01212E
:10265000E048FEF737FD0020019001208DF80800CA
:102660008DF809004FF460200390002004901020A2
:102670008DF8140001A9D8484C38FEF7ACFD4FF492
:102680000040FEF735F9052301220A21D2484C38D3
:10269000FEF739FE052302220B21CF484C38FEF706
:1026A00032FE052303220C21CB484C38FEF72BFECB
:1026B000052304220D21C8484C38FEF724FE0523CB
:1026C0001A460E21C4484C38FEF71DFE052306228B
:1026D0000F21C1484C38FEF716FE052307220021C2
:1026E000BD484C38FEF70FFE052308220121BA48E9
:1026F0004C38FEF708FE052309220221B6484C3863
:10270000FEF701FE05230A220321B3484C38FEF7E9
:10271000FAFD05230B220421AF484C38FEF7F3FDE8
:1027200005230C221946AC484C38FEF7ECFD052376
:102730000D220621A8484C38FEF7E5FD05230E22A0
:102740000721A5484C38FEF7DEFD05230F2208219E
:10275000A1484C38FEF7D7FD0523102209219E48D9
:102760004C38FEF7D0FD01219B484C38FEF76AFD3E
:10277000012199484C38FEF75AFD97484C38FEF72E
:1027800078FD00BF94484C38FEF778FD0028F9D159
:1027900091484C38FEF77CFD00BF8F484C38FEF75F
:1027A0007CFD0028F9D101218B484C38FEF77FFDD4
:1027B00011B000BD10B5FFF7F7FEFFF721FF10BD08
:1027C00000B589B085480088019000F010FC4FF0FA
:1027D0008B41029000F05BFB039000F00DFC4FF08A
:1027E00066327F4BCDE9040100F08FFBCDE9060195
:1027F00000F015FC7B49086078484088019000F0A3
:10280000F6FB4FF08B41029000F041FB039000F08B
:10281000F3FB4FF06632724BCDE9040100F075FB1B
:10282000CDE9060100F0FBFB6E4948606B488088EB
:10283000019000F0DCFB4FF08B41029000F027FB91
:10284000039000F0D9FB4FF06632654BCDE90401EF
:1028500000F05BFBCDE9060100F0E1FB6149886017
:102860005E48C088019000F0C2FB4FF08B4102909F
:1028700000F00DFB039000F0BFFB4FF06632584BA9
:10288000CDE9040100F041FBCDE9060100F0C7FBF2
:102890005449C86051480089019000F0A8FB4FF0EE
:1028A0008B41029000F0F3FA039000F0A5FB4FF08B
:1028B00066324B4BCDE9040100F027FBCDE9060160
:1028C00000F0ADFB4749086144484089019000F0A1
:1028D0008EFB4FF08B41029000F0D9FA039000F08C
:1028E0008BFB4FF066323E4BCDE9040100F00DFB4F
:1028F000CDE9060100F093FB3A49486137488089E9
:10290000019000F074FB4FF08B41029000F0BFFA91
:10291000039000F071FB4FF06632314BCDE90401BA
:1029200000F0F3FACDE9060100F079FB2D4988614A
:102930002A48C089019000F05AFB4FF08B41029069
:1029400000F0A5FA039000F057FB4FF06632244BDD
:10295000CDE9040100F0D9FACDE9060100F05FFBF2
:102960002049C8611D48008A019000F040FB4FF0EB
:102970008B41029000F08BFA039000F03DFB4FF08A
:102980006632174BCDE9040100F0BFFACDE906012C
:1029900000F045FB134908621048408A019000F09E
:1029A00026FB4FF08B41029000F071FA039000F08B
:1029B00023FB4FF066320A4BCDE9040100F0A5FA83
:1029C000CDE9060100F02BFB06490DE000100140A7
:1029D000000C0140080002404C240140281D00204A
:1029E00066660A40481D00204862B048808A01900F
:1029F00000F0FDFA4FF08B41029000F048FA03908E
:102A000000F0FAFA4FF06632A94BCDE9040100F06C
:102A10007CFACDE9060100F002FBA6498862A348D2
:102A2000C08A019000F0E3FA4FF08B41029000F071
:102A30002EFA039000F0E0FA4FF066329C4BCDE99D
:102A4000040100F062FACDE9060100F0E8FA9949C4
:102A5000C8629648008B019000F0C9FA4FF08B4194
:102A6000029000F014FA039000F0C6FA4FF06632BC
:102A70008F4BCDE9040100F048FACDE9060100F0E2
:102A8000CEFA8C4908638948408B019000F0AFFA78
:102A90004FF08B41029000F0FAF9039000F0ACFA8D
:102AA0004FF06632824BCDE9040100F02EFACDE9F9
:102AB000060100F0B4FA7F4948637C48808B01909E
:102AC00000F095FA4FF08B41029000F0E0F903908E
:102AD00000F092FA4FF06632754BCDE9040100F038
:102AE00014FACDE9060100F09AFA724988636F483A
:102AF000C08B019000F07BFA4FF08B41029000F008
:102B0000C6F9039000F078FA4FF06632684BCDE9D1
:102B1000040100F0FAF9CDE9060100F080FA6549F8
:102B2000C86308460068059000F066FA02460B4646
:102B3000CDE9060160A000F0F3FC5E484068059016
:102B400000F05AFA02460B46CDE9060160A000F0FB
:102B5000E7FC58488068059000F04EFA02460B46A4
:102B6000CDE9060160A000F0DBFC5248C06805908A
:102B700000F042FA02460B46CDE9060160A000F0E3
:102B8000CFFC4C480069059000F036FA02460B462F
:102B9000CDE9060160A000F0C3FC464840690590FD
:102BA00000F02AFA02460B46CDE9060160A000F0CB
:102BB000B7FC40488069059000F01EFA02460B46BB
:102BC000CDE9060160A000F0ABFC3A48C069059071
:102BD00000F012FA02460B46CDE9060160A000F0B3
:102BE0009FFC3448006A059000F006FA02460B4646
:102BF000CDE9060160A000F093FC2E48406A0590E4
:102C000000F0FAF902460B46CDE9060160A000F09B
:102C100087FC2848806A059000F0EEF902460B46D2
:102C2000CDE9060160A000F07BFC2248C06A059057
:102C300000F0E2F902460B46CDE9060160A000F083
:102C40006FFC1C48006B059000F0D6F902460B465D
:102C5000CDE9060160A000F063FC1648406B0590CA
:102C600000F0CAF902460B46CDE9060160A000F06B
:102C700057FC1048806B059000F0BEF902460B46E9
:102C8000CDE9060160A000F04BFC0A48C06B05903E
:102C900000F0B2F902460B46CDE9060160A000F053
:102CA0003FFC65A000F03CFC09B000BD281D0020E1
:102CB00066660A40481D00200D0A204348312076F0
:102CC000616C7565203D20256620562000000000BF
:102CD0000D0A204348322076616C7565203D202521
:102CE00066205620000000000D0A2043483320765D
:102CF000616C7565203D202566205620000000008F
:102D00000D0A204348342076616C7565203D2025EE
:102D100066205620000000000D0A2043483520762A
:102D2000616C7565203D202566205620000000005E
:102D30000D0A204348362076616C7565203D2025BC
:102D400066205620000000000D0A204348372076F8
:102D5000616C7565203D202566205620000000002E
:102D60000D0A204348382076616C7565203D20258A
:102D700066205620000000000D0A204348392076C6
:102D8000616C7565203D20256620562000000000FE
:102D90000D0A20434831302076616C7565203D2056
:102DA00025662056200000000D0A204348313120BE
:102DB00076616C7565203D20256620562000000058
:102DC0000D0A20434831322076616C7565203D2024
:102DD00025662056200000000D0A2043483133208C
:102DE00076616C7565203D20256620562000000028
:102DF0000D0A20434831342076616C7565203D20F2
:102E000025662056200000000D0A20434831352059
:102E100076616C7565203D202566205620000000F7
:102E20000D0A20434831362076616C7565203D20BF
:102E300025662056200000000D0A0D0A0000000043
:102E4000D2B201E000F8012B491EFBD270470022EC
:102E5000F6E710B513460A4604461946FFF7F0FF99
:102E6000204610BD421C10F8011B0029FBD1801A1E
:102E7000704710B5002200E0521C835C8C5CA342BA
:102E800001D1002BF8D1D8B2E1B2401A10BD30B454
:102E900080EA010202F0004530F0004221F00040DB
:102EA00013D090B1C30DD40DC2F31601C0F31600B8
:102EB000E41A41F4000140F400027D34914201D350
:102EC000641C00E04900002C02DA30BC002070478E
:102ED0004FF400000023914201D3891A03434008B4
:102EE0004FEA4101F7D151B1914202D14FF0004177
:102EF00005E002D24FF0010101E06FF0010103EBA8
:102F0000C450284430BC00F0EDB82DE9FE4F81EAF2
:102F1000030404F0004421F0004100944FF0000B42
:102F200023F0004350EA01045ED052EA03045BD070
:102F3000C3F30A54C1F30A552C44A4F2F3340194A8
:102F4000A0FB0254C1F3130141F48011C3F3130336
:102F500043F4801301FB024400FB034E840A970AEA
:102F600044EA815447EA8357A4FB076802958D0A17
:102F700005FB07854FEA932C04FB0C542705029DA3
:102F80004FEA065847EA1637B5EB08056EEB070C13
:102F9000870E920E47EA811742EA8312A7FB0201CD
:102FA000B6EB0B0164EB00042B0D43EA0C335E1807
:102FB00044EB1C50DA465146E7FB0201C5F313040B
:102FC0004FEA0B3343EA14534FEA0432019C43EABD
:102FD0000603A4F10C040294009CCDE900B400F0B7
:102FE000C7F803B0BDE8F08F00200146F9E796234B
:102FF0000022114600F07FB800F0004230F000409F
:103000000AD0C10D01F56071C0F3160042EA01510A
:10301000C20840071143704700200146704701F085
:10302000004330B421F0004150EA010206D00A0DFD
:10303000A2F56072C1F31301002A02DC30BC00204B
:103040007047440F44EAC104C100E01830BC00EBF3
:10305000C25000F047B830B50B4601460020202290
:10306000012409E021FA02F59D4205D303FA02F595
:10307000491B04FA02F52844151EA2F10102F1DCF5
:1030800030BD2DE9F05F0546002092469B468846FC
:103090000646814640241BE02846414647462246D4
:1030A00000F01BFA53465A46C01A914110D31146FC
:1030B0001846224600F002FA2D1A67EB01084F4627
:1030C00022460120002100F0F9F917EB00094E41DA
:1030D000201EA4F10104DFDC484631462A4643465F
:1030E000BDE8F09F0029A8BF7047401C490008BFF9
:1030F00020F00100704710B4B0FA80FC00FA0CF028
:1031000050EA010404BF10BC704749B1CCF120045F
:1031100021FA04F411FA0CF118BF012121430843EC
:10312000A3EB0C01CB1D4FEA00614FEA102042BF18
:10313000002010BC704700EBC35010440029A4BF0E
:1031400010BC7047401C490008BF20F0010010BCB3
:10315000704710B5141E73F1000408DA401C41F1E9
:10316000000192185B411A4301D120F0010010BD0B
:103170002DE9F04D92469B4611B1B1FA81F202E081
:10318000B0FA80F22032904600F098F904460F46DB
:1031900040EA0A0041EA0B0153465A46084313D05D
:1031A000114653EA010019D0C8F14002504600F020
:1031B00094F905460E4650465946424600F07EF9BF
:1031C000084305D0012004E020463946BDE8F08DD3
:1031D0000020054346EAE0762C4337430A9863050E
:1031E000E40AA0EB08000022FD0A44EA47540A3032
:1031F00002D500200146E9E7010510196941DDE922
:10320000084500196941BDE8F04DA2E72DE9FE4FE0
:10321000804681EA0300C00F0C46009021F0004177
:1032200023F00045B8EB0200A94105D240462146F3
:1032300090461C460B46024623F00040104347D000
:10324000270DC7F30A00C3F30A510290401A0190F8
:1032500040286BDAC3F3130040F4801B00989246B9
:1032600020B10023D2EB030A63EB0B0B0198594604
:10327000C0F14002504600F021F906460D46504686
:103280005946019A00F039F910EB08006141002419
:1032900087EA115284EAE7731A4340D0009A62B376
:1032A000019A012A4FEA075215DC001B61EB02016B
:1032B0004FF0004202EA0752CDE90042001C41F5FE
:1032C000801132462B46FFF753FF03B0BDE8F08F65
:1032D00040462146F9E7001B61EB0201001C41F565
:1032E000801300185B412018A2F5001747EB03017B
:1032F00040EAD570B6196D4111E06D084FEA360607
:1033000045EAC0754FEA0752001B61EB0201001C41
:1033100041F5801149084FEA300000195141324609
:103320002B4603B0BDE8F04FFFF713BF0098012212
:1033300040000023D0EB020263EBE07300982146CB
:103340004FEAE074B8EB000061EB0401E9E783F0B9
:1033500000435BE781F0004158E72DE9F04D81EA39
:10336000030404F0004B21F0004514464FF0000A1E
:1033700023F0004150EA050220D054EA01021DD09A
:10338000C5F30A570246C5F31303C1F31300C1F393
:103390000A5640F4801543F48013A7EB0608101B6F
:1033A000D64608F2FD3873EB050002D308F1010898
:1033B00001E092185B41B8F1000F03DA00200146EA
:1033C000BDE8F08D00204FF48011064684460EE0E3
:1033D000171B73EB050705D3121B63EB05030643AD
:1033E0004CEA010C49084FEA300092185B4150EA60
:1033F0000107EDD152EA030012D082EA040083EA09
:103400000501084305D0101BAB4106D20122002361
:1034100006E000224FF0004302E06FF0010253107B
:103420001AEB06004CEB085110EB0A0041EB0B01C4
:10343000BDE8F04DFFF78DBEC1F30A52C1F3130191
:1034400040F2FF3341F480119A4202DA0020014633
:10345000704740F233439A42A2F2334202DC5242B6
:1034600000F03BB800F02AB830B5041E71F100043A
:1034700004DB4FF00044404264EB0101141E73F181
:10348000000405DB1C464FF00043524263EB04038B
:10349000994208BF904230BD064C074D06E0E068F7
:1034A00040F0010394E8070098471034AC42F6D38B
:1034B000FCF742FEF43E0008143F0008202A04DB1B
:1034C000203A00FA02F1002070479140C2F1200337
:1034D00020FA03F3194390407047202A04DB203A76
:1034E00021FA02F00021704721FA02F3D040C2F124
:1034F00020029140084319467047202A06DBCB176B
:10350000203A41FA02F043EAE07306E041FA02F39E
:10351000D040C2F120029140084319467047000094
:103520000FB4054B10B503A9044A029800F0DAF86D
:1035300010BC5DF814FB0000FD23000850000020C3
:1035400002E008C8121F08C1002AFAD1704770476C
:10355000002001E001C1121F002AFBD170470000CA
:103560002DE9FF5F82B00021DDE90430020DDDF8B6
:1035700040B0034318D044F61050A2F2FF32424349
:103580001514119801281FD0A5EB0B00401C5FEA11
:10359000000A4FF000064E4FDFF83891B046504613
:1035A00015D5CAF1000413E0119801244AA301289B
:1035B00001D16FEA0B010298119AC0E90031C0E90C
:1035C000024206B0BDE8F09FCBF10000DFE7044601
:1035D0000021404A491842EB0450CDE9001012E0A6
:1035E000E00707D032463B4640464946FFF78DFC90
:1035F0008046894632463B4610461946FFF785FC11
:1036000006460F466410002CEAD1DDE90401DDE92D
:103610000023BAF1000F06DAFFF777FC42464B466B
:10362000FFF773FC05E0FFF798FE42464B46FFF7B5
:1036300094FE04460E460022284BFFF715FF03D8E0
:103640004FF0FF30014607E00022254B204631466F
:10365000FFF7DCFDFFF7F0FE102409E0002C0ADB89
:103660000A220023FFF70DFD039B30321A55641E1A
:1036700050EA0102F2D1641C039AC4F1110314440C
:10368000119A012A03D0012208430DD10AE0084310
:1036900004D000204FF0110B119072E7A3EB0B0543
:1036A0006D1E0DE05B4504DD4FF0000205F10105E4
:1036B00004E003DA4FF00002A5F10105002AECD086
:1036C00002981199C0E90231C0E9004579E700008C
:1036D000000014400000F03F300000000000F04304
:1036E0000000E03F2DE9FF4F95B09B468946064616
:1036F00000250FE2252877D100242746F84A01212A
:10370000059400E0044316F8013F203B01FA03F062
:103710001042F7D130782A2811D06FF02F0330787B
:10372000A0F13002092A16D8059A44F0020402EBEF
:10373000820203EB42021044761C0590EFE759F831
:10374000042B0592002A03DA504244F400540590F9
:1037500044F00204761C30782E2816D116F8010F9A
:1037600044F004042A280DD06FF02F023078A0F125
:103770003003092B09D807EB870302EB4303C71873
:10378000761CF3E759F8047B761C30786C280FD050
:1037900006DC4C2817D068280DD06A2814D104E024
:1037A000742810D07A280FD10DE044F400140AE0F8
:1037B00044F4801401E044F440147278824202D14F
:1037C00004F58014761C761C307866280BD013DC48
:1037D000582877D009DC002875D04528F6D046282F
:1037E000F4D047281AD19DE118E0632835D0642829
:1037F00079D0652812D195E1702873D008DC67284C
:10380000F1D069286FD06E280DD06F2806D1B5E0B1
:1038100073282CD0752875D0782874D05A461799FB
:1038200090476D1C75E1C4F30250022809D00328AB
:103830000DD0D9F8001004280DD00D6009F104094D
:1038400067E1D9F80010EA17C1E90052F6E7D9F8A4
:1038500000100D80F2E70D70F0E719F8041B8DF8E9
:10386000001000208DF80100EA46012003E059F81D
:1038700004AB4FF0FF3061074FF0000102D40DE0C0
:1038800008F101018846B9420FDA8045F8DB1AF8E1
:1038900008100029F4D108E008F1010188468142AE
:1038A000FADB1AF808100029F6D105985B46A0EB60
:1038B000080721463846179A00F094FA284400EB8E
:1038C000080507E04DE029E10DE01AF8010B5A4622
:1038D00017999047B8F10108F7D25B462146384660
:1038E000179A13E142E00A220092C4F302524FF009
:1038F000000A022A08D059F804CB032A4FEAEC71D7
:103900000AD00DE029E02AE009F1070121F00702C1
:10391000F2E802C1914609E00FFA8CFC4FEAEC7123
:10392000042A03D14FFA8CFC4FEAEC71002907DA24
:103930000A460021DCF1000C61EB02012D2202E0BD
:10394000220504D52B228DF80420012203E0E20792
:1039500001D02022F7E7904659E00A2102E0102228
:103960000DE010214FF0000A00910BE010224FF003
:10397000000A44F004040827009203E008224FF0F4
:10398000000A0092C4F30252022A05D059F804CB6F
:103990000021032A08D009E009F1070121F00702FC
:1039A000F2E802C1914605E01FFA8CFC042A01D11D
:1039B0000CF0FF0C4FF00008220728D5702806D025
:1039C000009B83F0100353EA0A0305D00EE0402267
:1039D0008DF80420012208E05CEA010206D03022C2
:1039E0008DF804208DF8050002229046009B83F09C
:1039F000080353EA0A030AD15CEA010201D1620713
:103A000005D530228DF804204FF001087F1E58287C
:103A100004D034A003900EA802900DE036A0F9E780
:103A200053466046009AFFF72CFB84460398825C5D
:103A30000298401E029002705CEA0100F0D10298E8
:103A400006A9081A00F1200A600702D524F4803480
:103A500000E00127574502DDA7EB0A0000E0002047
:103A600000EB0A01009005984144401A0590E003DC
:103A700006D45B462146179A059800F0B3F9054431
:103A8000002706E001A85A46C05D179990476D1CB3
:103A90007F1C4745F6DBE0030CD55B462146179AB1
:103AA000059800F09FF9054404E030205A46179924
:103AB00090476D1C0099481E00900029F5DC08E035
:103AC000029802995A460078491C0291179990472A
:103AD0006D1CBAF10001AAF1010AF1DC65E10000F8
:103AE00009280100303132333435363738396162D4
:103AF0006364656600000000303132333435363798
:103B000038394142434445460000000000F058F96E
:103B10000544761C307800287FF4ECAD19B02846B7
:103B2000BDE8F08F620700D4062709F1070222F0F2
:103B3000070CFCE80223E14603F000485FEA080CAA
:103B400002D00FF2702C0DE05FEA045C02D50FF298
:103B5000682C07E05FEAC47C02D00FF2602C01E021
:103B6000AFF2700C4FF0FF3823F00043CDF850C097
:103B700065280CD006DC452809D046281DD04728EA
:103B80003DD13DE0662818D067287ED138E000217D
:103B9000112F01DB112000E0781CCDE9000106A9FE
:103BA0000EA8FFF7DDFCDDE90F010E9A039100215D
:103BB000009207F1010A04914DE04FF00040009798
:103BC000CDE9011006A90EA8FFF7CAFCDDE90F0236
:103BD00003920E9B11990022DDF80CA00093049231
:103BE00011B9791C00EB010AB7EB0A0004D4C0F14B
:103BF000FF3007F1010A0490AAEB0700019044E0AE
:103C0000012F00DA01270021112F01DD112000E032
:103C10003846CDE9000106A90EA8FFF7A1FCDDE9B1
:103C20000F010E9A0391002104910092BA462107D8
:103C30000CD40399514500DA8A46BAF1010F05DD2B
:103C4000009AAAF10101515C302908D0B84202DA89
:103C500010F1040F06DA0121CDE9011015E0AAF1F7
:103C60000101E9E7002805DC049901440491AAEB6D
:103C7000000102E0411C514500DD8A460499401ACA
:103C8000401C01904FF000400290200704D401989E
:103C9000504501DBCDF8048000208DF84F000298DC
:103CA0000DF14F07B0F1004F25D02B200E90029858
:103CB0004FF0020800280CDA404202902D200E90AE
:103CC00007E00A210298FFF7C6F93031029007F8A1
:103CD000011DB8F10001A8F10108F2DC02980028EA
:103CE000EFD1791E0E980870307800F0200040F077
:103CF000450007F8020D12A8C01B00F10708149830
:103D0000007800B1012000EB0A01019801EBE0719D
:103D100005984144401A401E0590E00306D45B46D6
:103D20002146179A059800F05DF80544149800782C
:103D300018B15A46179990476D1CE00324D55B468D
:103D40002146179A059800F04DF805441CE00498A8
:103D5000002807DBDDE90301884203DD0098405CB1
:103D6000179901E0179930205A469047049805F1B9
:103D70000105401C04900198401E019004D12E20A2
:103D80005A46179990476D1CBAF10001AAF1010A31
:103D9000DDDC05E017F8010B5A46179990476D1CBA
:103DA000B8F10001A8F10108F4DC5B462146179A3E
:103DB0000598ABE62D0000002B000000200000005D
:103DC0002DE9F041044600251E461746880404D418
:103DD00005E039462020B0476D1C641EF9D5284601
:103DE000BDE8F0812DE9F041044600251E469046CD
:103DF000C80301D5302700E02027880404D505E05A
:103E000041463846B0476D1C641EF9D52846BDE8CA
:103E1000F081000073746172745F6D757369630083
:103E2000626C5F6C6576656C2076616C203D20B1BC
:103E3000B3B9E2B5C8BCB62076616C007374617228
:103E4000745F766964656F0073746172745F726128
:103E500064696F007265736574203D20B8B4CEBB91
:103E6000000000006932635F73656E6420737562E1
:103E7000616464726573732076616C203D206932E1
:103E800063B5F7CAD40000007265765F656E616243
:103E90006C65203D20B5B9B3B5BFAAC6F42FB9D81B
:103EA000B1D50000626C5F7365742031206F7220A1
:103EB00030203D20B1B3B9E2BFAAC6F42FB9D8B1C2
:103EC000D5000000617564696F6D757465202031DF
:103ED000206F722030203D20BEB2D2F4BFAAC6F4BB
:103EE0002FB9D8B1D500000068656C70203D20B0B6
:103EF000EFD6FA00143F0008000000205400000034
:103F000040350008683F000854000020341F0000BE
:103F10005035000800000000010203040102030400
:103F2000060708090204060800000000E83E000831
:103F3000543E0008A43E0008203E0008883E0008C9
:103F4000643E0008C43E0008483E0008143E0008D5
:103F50003C3E0008000000000000000000000000DF
:083F6000000000000000000059
:0400000508000147A7
:00000001FF
